{
  "contractName": "Storage",
  "abi": [
    {
      "inputs": [],
      "payable": false,
      "stateMutability": "nonpayable",
      "type": "constructor"
    },
    {
      "constant": false,
      "inputs": [
        {
          "name": "information",
          "type": "bytes32"
        },
        {
          "name": "date",
          "type": "string"
        }
      ],
      "name": "store_info",
      "outputs": [],
      "payable": false,
      "stateMutability": "nonpayable",
      "type": "function"
    },
    {
      "constant": true,
      "inputs": [],
      "name": "get_info",
      "outputs": [
        {
          "name": "information",
          "type": "bytes32"
        }
      ],
      "payable": false,
      "stateMutability": "view",
      "type": "function"
    }
  ],
  "bytecode": "0x6060604052341561000f57600080fd5b6102918061001e6000396000f30060606040526004361061004c576000357c0100000000000000000000000000000000000000000000000000000000900463ffffffff16806329b478601461005157806360583488146100bb575b600080fd5b341561005c57600080fd5b6100b960048080356000191690602001909190803590602001908201803590602001908080601f016020809104026020016040519081016040528093929190818152602001838380828437820191505050505050919050506100ec565b005b34156100c657600080fd5b6100ce610177565b60405180826000191660001916815260200191505060405180910390f35b604080519081016040528083600019168152602001828152506000803373ffffffffffffffffffffffffffffffffffffffff1673ffffffffffffffffffffffffffffffffffffffff16815260200190815260200160002060008201518160000190600019169055602082015181600101908051906020019061016f9291906101c0565b509050505050565b60008060003373ffffffffffffffffffffffffffffffffffffffff1673ffffffffffffffffffffffffffffffffffffffff16815260200190815260200160002060000154905090565b828054600181600116156101000203166002900490600052602060002090601f016020900481019282601f1061020157805160ff191683800117855561022f565b8280016001018555821561022f579182015b8281111561022e578251825591602001919060010190610213565b5b50905061023c9190610240565b5090565b61026291905b8082111561025e576000816000905550600101610246565b5090565b905600a165627a7a72305820205f641de4bf42225b1568e2d10b16f4fd6fd1b2dc3687d2682a98207a82d27b0029",
  "source": "pragma solidity ^0.4.0;\n\n// The contract that the users will be interacting with.\ncontract Storage {\n\n  // A mapping that maps user addresses to StorageInfo.\n  mapping(address => StorageInfo) storage_map;\n\n  // A struct StorageInfo that represents information that can be stored into our array.\n  struct StorageInfo {\n    bytes32 information;\n    string date;\n  }\n\n  // Constructor function.\n  function Storage() public {\n  }\n\n  // A function to store information into our map. \n  function store_info(bytes32 information, string date) public { \n    storage_map[msg.sender] = StorageInfo(information, date);\n  }\n\n  // A function to retrieve information from our map. \n  function get_info() public view returns(bytes32 information) {\n    return storage_map[msg.sender].information;\n  }\n\n}\n",
  "sourcePath": "/Users/Ahan/Desktop/blockchainBoys/Storage/contracts/storage.sol",
  "compiler": {
    "name": "solc",
    "version": "0.4.19+commit.c4cbbb05.Emscripten.clang"
  },
  "schemaVersion": "1.0.1",
  "updatedAt": "2018-02-15T09:26:45.893Z"
}